{
  "_format": "hh-sol-artifact-1",
  "contractName": "EmojiStore",
  "sourceName": "contracts/emoji_store.sol",
  "abi": [
    {
      "inputs": [
        {
          "internalType": "address",
          "name": "_platformAddress",
          "type": "address"
        }
      ],
      "stateMutability": "nonpayable",
      "type": "constructor"
    },
    {
      "anonymous": false,
      "inputs": [
        {
          "indexed": false,
          "internalType": "uint256",
          "name": "id",
          "type": "uint256"
        },
        {
          "indexed": false,
          "internalType": "string",
          "name": "hexCode",
          "type": "string"
        },
        {
          "indexed": false,
          "internalType": "uint256",
          "name": "price",
          "type": "uint256"
        },
        {
          "indexed": false,
          "internalType": "address",
          "name": "creator",
          "type": "address"
        }
      ],
      "name": "EmojiAdded",
      "type": "event"
    },
    {
      "anonymous": false,
      "inputs": [
        {
          "indexed": false,
          "internalType": "uint256",
          "name": "id",
          "type": "uint256"
        },
        {
          "indexed": false,
          "internalType": "address",
          "name": "buyer",
          "type": "address"
        },
        {
          "indexed": false,
          "internalType": "address",
          "name": "previousOwner",
          "type": "address"
        }
      ],
      "name": "EmojiPurchased",
      "type": "event"
    },
    {
      "anonymous": false,
      "inputs": [
        {
          "indexed": false,
          "internalType": "uint256",
          "name": "id",
          "type": "uint256"
        },
        {
          "indexed": false,
          "internalType": "uint256",
          "name": "oldPrice",
          "type": "uint256"
        },
        {
          "indexed": false,
          "internalType": "uint256",
          "name": "newPrice",
          "type": "uint256"
        }
      ],
      "name": "PriceUpdated",
      "type": "event"
    },
    {
      "inputs": [
        {
          "internalType": "string",
          "name": "hexCode",
          "type": "string"
        },
        {
          "internalType": "string",
          "name": "description",
          "type": "string"
        },
        {
          "internalType": "uint256",
          "name": "price",
          "type": "uint256"
        }
      ],
      "name": "addEmoji",
      "outputs": [],
      "stateMutability": "nonpayable",
      "type": "function"
    },
    {
      "inputs": [
        {
          "internalType": "uint256",
          "name": "",
          "type": "uint256"
        }
      ],
      "name": "emojiIds",
      "outputs": [
        {
          "internalType": "uint256",
          "name": "",
          "type": "uint256"
        }
      ],
      "stateMutability": "view",
      "type": "function"
    },
    {
      "inputs": [
        {
          "internalType": "uint256",
          "name": "",
          "type": "uint256"
        }
      ],
      "name": "emojis",
      "outputs": [
        {
          "internalType": "uint256",
          "name": "id",
          "type": "uint256"
        },
        {
          "internalType": "string",
          "name": "hexCode",
          "type": "string"
        },
        {
          "internalType": "string",
          "name": "description",
          "type": "string"
        },
        {
          "internalType": "uint256",
          "name": "price",
          "type": "uint256"
        },
        {
          "internalType": "address",
          "name": "owner",
          "type": "address"
        },
        {
          "internalType": "address",
          "name": "creator",
          "type": "address"
        }
      ],
      "stateMutability": "view",
      "type": "function"
    },
    {
      "inputs": [
        {
          "internalType": "uint256",
          "name": "emojiId",
          "type": "uint256"
        }
      ],
      "name": "getEmoji",
      "outputs": [
        {
          "components": [
            {
              "internalType": "uint256",
              "name": "id",
              "type": "uint256"
            },
            {
              "internalType": "string",
              "name": "hexCode",
              "type": "string"
            },
            {
              "internalType": "string",
              "name": "description",
              "type": "string"
            },
            {
              "internalType": "uint256",
              "name": "price",
              "type": "uint256"
            },
            {
              "internalType": "address",
              "name": "owner",
              "type": "address"
            },
            {
              "internalType": "address",
              "name": "creator",
              "type": "address"
            }
          ],
          "internalType": "struct EmojiStore.Emoji",
          "name": "",
          "type": "tuple"
        }
      ],
      "stateMutability": "view",
      "type": "function"
    },
    {
      "inputs": [],
      "name": "getEmojiCount",
      "outputs": [
        {
          "internalType": "uint256",
          "name": "",
          "type": "uint256"
        }
      ],
      "stateMutability": "view",
      "type": "function"
    },
    {
      "inputs": [],
      "name": "platformAddress",
      "outputs": [
        {
          "internalType": "address",
          "name": "",
          "type": "address"
        }
      ],
      "stateMutability": "view",
      "type": "function"
    },
    {
      "inputs": [],
      "name": "platformFeePercent",
      "outputs": [
        {
          "internalType": "uint256",
          "name": "",
          "type": "uint256"
        }
      ],
      "stateMutability": "view",
      "type": "function"
    },
    {
      "inputs": [
        {
          "internalType": "uint256",
          "name": "emojiId",
          "type": "uint256"
        }
      ],
      "name": "purchaseEmoji",
      "outputs": [],
      "stateMutability": "payable",
      "type": "function"
    },
    {
      "inputs": [
        {
          "internalType": "uint256",
          "name": "emojiId",
          "type": "uint256"
        },
        {
          "internalType": "uint256",
          "name": "newPrice",
          "type": "uint256"
        }
      ],
      "name": "updatePrice",
      "outputs": [],
      "stateMutability": "nonpayable",
      "type": "function"
    }
  ],
  "bytecode": "0x6080604052600160005560056002553480156200001b57600080fd5b5060405162001ebe38038062001ebe833981810160405281019062000041919062000113565b600073ffffffffffffffffffffffffffffffffffffffff168173ffffffffffffffffffffffffffffffffffffffff161415620000b4576040517f08c379a0000000000000000000000000000000000000000000000000000000008152600401620000ab9062000181565b60405180910390fd5b80600160006101000a81548173ffffffffffffffffffffffffffffffffffffffff021916908373ffffffffffffffffffffffffffffffffffffffff1602179055505062000202565b6000815190506200010d81620001e8565b92915050565b6000602082840312156200012657600080fd5b60006200013684828501620000fc565b91505092915050565b60006200014e601883620001a3565b91507f496e76616c696420706c6174666f726d206164647265737300000000000000006000830152602082019050919050565b600060208201905081810360008301526200019c816200013f565b9050919050565b600082825260208201905092915050565b6000620001c182620001c8565b9050919050565b600073ffffffffffffffffffffffffffffffffffffffff82169050919050565b620001f381620001b4565b8114620001ff57600080fd5b50565b611cac80620002126000396000f3fe6080604052600436106100865760003560e01c8063a959a8ef11610059578063a959a8ef14610133578063be7d97b31461014f578063db229bd71461018c578063dbe55e56146101c9578063f3c2f327146101f457610086565b80630392dee61461008b57806382367b2d146100b657806384cf118d146100df5780638c639a8514610108575b600080fd5b34801561009757600080fd5b506100a0610236565b6040516100ad91906117f2565b60405180910390f35b3480156100c257600080fd5b506100dd60048036038101906100d891906111b8565b610243565b005b3480156100eb57600080fd5b5061010660048036038101906101019190611110565b6103ca565b005b34801561011457600080fd5b5061011d6106c8565b60405161012a91906117f2565b60405180910390f35b61014d6004803603810190610148919061118f565b6106ce565b005b34801561015b57600080fd5b506101766004803603810190610171919061118f565b610b59565b60405161018391906117d0565b60405180910390f35b34801561019857600080fd5b506101b360048036038101906101ae919061118f565b610db8565b6040516101c091906117f2565b60405180910390f35b3480156101d557600080fd5b506101de610ddc565b6040516101eb9190611675565b60405180910390f35b34801561020057600080fd5b5061021b6004803603810190610216919061118f565b610e02565b60405161022d96959493929190611844565b60405180910390f35b6000600580549050905090565b60006003600084815260200190815260200160002090506000816000015414156102a2576040517f08c379a000000000000000000000000000000000000000000000000000000000815260040161029990611730565b60405180910390fd5b3373ffffffffffffffffffffffffffffffffffffffff168160040160009054906101000a900473ffffffffffffffffffffffffffffffffffffffff1673ffffffffffffffffffffffffffffffffffffffff1614610334576040517f08c379a000000000000000000000000000000000000000000000000000000000815260040161032b906116b0565b60405180910390fd5b60008211610377576040517f08c379a000000000000000000000000000000000000000000000000000000000815260040161036e906117b0565b60405180910390fd5b6000816003015490508282600301819055507f15819dd2fd9f6418b142e798d08a18d0bf06ea368f4480b7b0d3f75bd966bc488482856040516103bc939291906118ff565b60405180910390a150505050565b600083511161040e576040517f08c379a000000000000000000000000000000000000000000000000000000000815260040161040590611710565b60405180910390fd5b60048360405161041e9190611649565b908152602001604051809103902060009054906101000a900460ff161561047a576040517f08c379a0000000000000000000000000000000000000000000000000000000008152600401610471906116f0565b60405180910390fd5b600081116104bd576040517f08c379a00000000000000000000000000000000000000000000000000000000081526004016104b4906117b0565b60405180910390fd5b6040518060c0016040528060005481526020018481526020018381526020018281526020013373ffffffffffffffffffffffffffffffffffffffff1681526020013373ffffffffffffffffffffffffffffffffffffffff168152506003600080548152602001908152602001600020600082015181600001556020820151816001019080519060200190610552929190610f8e565b50604082015181600201908051906020019061056f929190610f8e565b506060820151816003015560808201518160040160006101000a81548173ffffffffffffffffffffffffffffffffffffffff021916908373ffffffffffffffffffffffffffffffffffffffff16021790555060a08201518160050160006101000a81548173ffffffffffffffffffffffffffffffffffffffff021916908373ffffffffffffffffffffffffffffffffffffffff160217905550905050600160048460405161061d9190611649565b908152602001604051809103902060006101000a81548160ff021916908315150217905550600560005490806001815401808255809150506001900390600052602060002001600090919091909150557fe4f51bf0359c6064b0321b8d09e0f21920e2c743c558f7d306cec236cc39a7436000548483336040516106a494939291906118b3565b60405180910390a16000808154809291906106be90611b49565b9190505550505050565b60025481565b600060036000838152602001908152602001600020905060008160000154141561072d576040517f08c379a000000000000000000000000000000000000000000000000000000000815260040161072490611730565b60405180910390fd5b3373ffffffffffffffffffffffffffffffffffffffff168160040160009054906101000a900473ffffffffffffffffffffffffffffffffffffffff1673ffffffffffffffffffffffffffffffffffffffff1614156107c0576040517f08c379a00000000000000000000000000000000000000000000000000000000081526004016107b790611770565b60405180910390fd5b600073ffffffffffffffffffffffffffffffffffffffff168160040160009054906101000a900473ffffffffffffffffffffffffffffffffffffffff1673ffffffffffffffffffffffffffffffffffffffff161415610854576040517f08c379a000000000000000000000000000000000000000000000000000000000815260040161084b90611690565b60405180910390fd5b806003015434101561089b576040517f08c379a0000000000000000000000000000000000000000000000000000000008152600401610892906116d0565b60405180910390fd5b60008160040160009054906101000a900473ffffffffffffffffffffffffffffffffffffffff16905060006064600254346108d69190611a0b565b6108e091906119da565b9050600081346108f09190611a65565b905060008460030154346109049190611a65565b9050338560040160006101000a81548173ffffffffffffffffffffffffffffffffffffffff021916908373ffffffffffffffffffffffffffffffffffffffff1602179055506000600160009054906101000a900473ffffffffffffffffffffffffffffffffffffffff1673ffffffffffffffffffffffffffffffffffffffff168460405161099190611660565b60006040518083038185875af1925050503d80600081146109ce576040519150601f19603f3d011682016040523d82523d6000602084013e6109d3565b606091505b5050905080610a17576040517f08c379a0000000000000000000000000000000000000000000000000000000008152600401610a0e90611750565b60405180910390fd5b60008573ffffffffffffffffffffffffffffffffffffffff1684604051610a3d90611660565b60006040518083038185875af1925050503d8060008114610a7a576040519150601f19603f3d011682016040523d82523d6000602084013e610a7f565b606091505b5050905080610ac3576040517f08c379a0000000000000000000000000000000000000000000000000000000008152600401610aba90611790565b60405180910390fd5b6000831115610b14573373ffffffffffffffffffffffffffffffffffffffff166108fc849081150290604051600060405180830381858888f19350505050158015610b12573d6000803e3d6000fd5b505b7fd9832f6801378bbde8815dd98e38ab0ad0fb34d09843e8a55f1e1eaf8fb1fa48883388604051610b479392919061180d565b60405180910390a15050505050505050565b610b61611014565b6000600360008481526020019081526020016000206040518060c001604052908160008201548152602001600182018054610b9b90611b17565b80601f0160208091040260200160405190810160405280929190818152602001828054610bc790611b17565b8015610c145780601f10610be957610100808354040283529160200191610c14565b820191906000526020600020905b815481529060010190602001808311610bf757829003601f168201915b50505050508152602001600282018054610c2d90611b17565b80601f0160208091040260200160405190810160405280929190818152602001828054610c5990611b17565b8015610ca65780601f10610c7b57610100808354040283529160200191610ca6565b820191906000526020600020905b815481529060010190602001808311610c8957829003601f168201915b50505050508152602001600382015481526020016004820160009054906101000a900473ffffffffffffffffffffffffffffffffffffffff1673ffffffffffffffffffffffffffffffffffffffff1673ffffffffffffffffffffffffffffffffffffffff1681526020016005820160009054906101000a900473ffffffffffffffffffffffffffffffffffffffff1673ffffffffffffffffffffffffffffffffffffffff1673ffffffffffffffffffffffffffffffffffffffff16815250509050600081600001511415610daf576040517f08c379a0000000000000000000000000000000000000000000000000000000008152600401610da690611730565b60405180910390fd5b80915050919050565b60058181548110610dc857600080fd5b906000526020600020016000915090505481565b600160009054906101000a900473ffffffffffffffffffffffffffffffffffffffff1681565b6003602052806000526040600020600091509050806000015490806001018054610e2b90611b17565b80601f0160208091040260200160405190810160405280929190818152602001828054610e5790611b17565b8015610ea45780601f10610e7957610100808354040283529160200191610ea4565b820191906000526020600020905b815481529060010190602001808311610e8757829003601f168201915b505050505090806002018054610eb990611b17565b80601f0160208091040260200160405190810160405280929190818152602001828054610ee590611b17565b8015610f325780601f10610f0757610100808354040283529160200191610f32565b820191906000526020600020905b815481529060010190602001808311610f1557829003601f168201915b5050505050908060030154908060040160009054906101000a900473ffffffffffffffffffffffffffffffffffffffff16908060050160009054906101000a900473ffffffffffffffffffffffffffffffffffffffff16905086565b828054610f9a90611b17565b90600052602060002090601f016020900481019282610fbc5760008555611003565b82601f10610fd557805160ff1916838001178555611003565b82800160010185558215611003579182015b82811115611002578251825591602001919060010190610fe7565b5b5090506110109190611076565b5090565b6040518060c0016040528060008152602001606081526020016060815260200160008152602001600073ffffffffffffffffffffffffffffffffffffffff168152602001600073ffffffffffffffffffffffffffffffffffffffff1681525090565b5b8082111561108f576000816000905550600101611077565b5090565b60006110a66110a184611967565b611936565b9050828152602081018484840111156110be57600080fd5b6110c9848285611ad5565b509392505050565b600082601f8301126110e257600080fd5b81356110f2848260208601611093565b91505092915050565b60008135905061110a81611c5f565b92915050565b60008060006060848603121561112557600080fd5b600084013567ffffffffffffffff81111561113f57600080fd5b61114b868287016110d1565b935050602084013567ffffffffffffffff81111561116857600080fd5b611174868287016110d1565b9250506040611185868287016110fb565b9150509250925092565b6000602082840312156111a157600080fd5b60006111af848285016110fb565b91505092915050565b600080604083850312156111cb57600080fd5b60006111d9858286016110fb565b92505060206111ea858286016110fb565b9150509250929050565b6111fd81611a99565b82525050565b61120c81611a99565b82525050565b600061121d82611997565b61122781856119ad565b9350611237818560208601611ae4565b61124081611c4e565b840191505092915050565b600061125682611997565b61126081856119be565b9350611270818560208601611ae4565b61127981611c4e565b840191505092915050565b600061128f82611997565b61129981856119cf565b93506112a9818560208601611ae4565b80840191505092915050565b60006112c26012836119be565b91507f456d6f6a6920686173206e6f206f776e657200000000000000000000000000006000830152602082019050919050565b60006113026023836119be565b91507f4f6e6c7920746865206f776e65722063616e207570646174652074686520707260008301527f69636500000000000000000000000000000000000000000000000000000000006020830152604082019050919050565b60006113686017836119be565b91507f496e73756666696369656e742045746865722073656e740000000000000000006000830152602082019050919050565b60006113a86014836119be565b91507f456d6f6a6920616c7265616479206578697374730000000000000000000000006000830152602082019050919050565b60006113e86018836119be565b91507f48657820636f64652063616e6e6f7420626520656d70747900000000000000006000830152602082019050919050565b60006114286014836119be565b91507f456d6f6a6920646f6573206e6f742065786973740000000000000000000000006000830152602082019050919050565b6000611468601b836119be565b91507f5472616e7366657220746f20706c6174666f726d206661696c656400000000006000830152602082019050919050565b60006114a86000836119a2565b9150600082019050919050565b60006114c2601d836119be565b91507f596f752063616e6e6f742062757920796f7572206f776e20456d6f6a690000006000830152602082019050919050565b60006115026021836119be565b91507f5472616e7366657220746f2070726576696f7573206f776e6572206661696c6560008301527f64000000000000000000000000000000000000000000000000000000000000006020830152604082019050919050565b6000611568601c836119be565b91507f5072696365206d7573742062652067726561746572207468616e2030000000006000830152602082019050919050565b600060c0830160008301516115b3600086018261162b565b50602083015184820360208601526115cb8282611212565b915050604083015184820360408601526115e58282611212565b91505060608301516115fa606086018261162b565b50608083015161160d60808601826111f4565b5060a083015161162060a08601826111f4565b508091505092915050565b61163481611acb565b82525050565b61164381611acb565b82525050565b60006116558284611284565b915081905092915050565b600061166b8261149b565b9150819050919050565b600060208201905061168a6000830184611203565b92915050565b600060208201905081810360008301526116a9816112b5565b9050919050565b600060208201905081810360008301526116c9816112f5565b9050919050565b600060208201905081810360008301526116e98161135b565b9050919050565b600060208201905081810360008301526117098161139b565b9050919050565b60006020820190508181036000830152611729816113db565b9050919050565b600060208201905081810360008301526117498161141b565b9050919050565b600060208201905081810360008301526117698161145b565b9050919050565b60006020820190508181036000830152611789816114b5565b9050919050565b600060208201905081810360008301526117a9816114f5565b9050919050565b600060208201905081810360008301526117c98161155b565b9050919050565b600060208201905081810360008301526117ea818461159b565b905092915050565b6000602082019050611807600083018461163a565b92915050565b6000606082019050611822600083018661163a565b61182f6020830185611203565b61183c6040830184611203565b949350505050565b600060c082019050611859600083018961163a565b818103602083015261186b818861124b565b9050818103604083015261187f818761124b565b905061188e606083018661163a565b61189b6080830185611203565b6118a860a0830184611203565b979650505050505050565b60006080820190506118c8600083018761163a565b81810360208301526118da818661124b565b90506118e9604083018561163a565b6118f66060830184611203565b95945050505050565b6000606082019050611914600083018661163a565b611921602083018561163a565b61192e604083018461163a565b949350505050565b6000604051905081810181811067ffffffffffffffff8211171561195d5761195c611c1f565b5b8060405250919050565b600067ffffffffffffffff82111561198257611981611c1f565b5b601f19601f8301169050602081019050919050565b600081519050919050565b600081905092915050565b600082825260208201905092915050565b600082825260208201905092915050565b600081905092915050565b60006119e582611acb565b91506119f083611acb565b925082611a00576119ff611bc1565b5b828204905092915050565b6000611a1682611acb565b9150611a2183611acb565b9250817fffffffffffffffffffffffffffffffffffffffffffffffffffffffffffffffff0483118215151615611a5a57611a59611b92565b5b828202905092915050565b6000611a7082611acb565b9150611a7b83611acb565b925082821015611a8e57611a8d611b92565b5b828203905092915050565b6000611aa482611aab565b9050919050565b600073ffffffffffffffffffffffffffffffffffffffff82169050919050565b6000819050919050565b82818337600083830152505050565b60005b83811015611b02578082015181840152602081019050611ae7565b83811115611b11576000848401525b50505050565b60006002820490506001821680611b2f57607f821691505b60208210811415611b4357611b42611bf0565b5b50919050565b6000611b5482611acb565b91507fffffffffffffffffffffffffffffffffffffffffffffffffffffffffffffffff821415611b8757611b86611b92565b5b600182019050919050565b7f4e487b7100000000000000000000000000000000000000000000000000000000600052601160045260246000fd5b7f4e487b7100000000000000000000000000000000000000000000000000000000600052601260045260246000fd5b7f4e487b7100000000000000000000000000000000000000000000000000000000600052602260045260246000fd5b7f4e487b7100000000000000000000000000000000000000000000000000000000600052604160045260246000fd5b6000601f19601f8301169050919050565b611c6881611acb565b8114611c7357600080fd5b5056fea264697066735822122003f13bab549d40e4a2a67c883fa79f8e9d8ea93c92ca546cdf8227c1fefbdf4e64736f6c63430008000033",
  "linkReferences": {},
  "deployedLinkReferences": {}
}